{
  "_format": "hh-sol-artifact-1",
  "contractName": "AequiExecutor",
  "sourceName": "contracts/AequiExecutor.sol",
  "abi": [
    {
      "inputs": [
        {
          "internalType": "address",
          "name": "initialOwner",
          "type": "address"
        }
      ],
      "stateMutability": "nonpayable",
      "type": "constructor"
    },
    {
      "inputs": [
        {
          "internalType": "address",
          "name": "token",
          "type": "address"
        }
      ],
      "name": "DuplicateFlushToken",
      "type": "error"
    },
    {
      "inputs": [],
      "name": "EnforcedPause",
      "type": "error"
    },
    {
      "inputs": [
        {
          "internalType": "uint256",
          "name": "index",
          "type": "uint256"
        },
        {
          "internalType": "address",
          "name": "target",
          "type": "address"
        },
        {
          "internalType": "bytes",
          "name": "reason",
          "type": "bytes"
        }
      ],
      "name": "ExecutionFailed",
      "type": "error"
    },
    {
      "inputs": [],
      "name": "ExpectedPause",
      "type": "error"
    },
    {
      "inputs": [],
      "name": "FailedCall",
      "type": "error"
    },
    {
      "inputs": [
        {
          "internalType": "uint256",
          "name": "balance",
          "type": "uint256"
        },
        {
          "internalType": "uint256",
          "name": "needed",
          "type": "uint256"
        }
      ],
      "name": "InsufficientBalance",
      "type": "error"
    },
    {
      "inputs": [
        {
          "internalType": "uint256",
          "name": "offset",
          "type": "uint256"
        },
        {
          "internalType": "uint256",
          "name": "length",
          "type": "uint256"
        }
      ],
      "name": "InvalidInjectionOffset",
      "type": "error"
    },
    {
      "inputs": [],
      "name": "InvalidRecipient",
      "type": "error"
    },
    {
      "inputs": [
        {
          "internalType": "address",
          "name": "owner",
          "type": "address"
        }
      ],
      "name": "OwnableInvalidOwner",
      "type": "error"
    },
    {
      "inputs": [
        {
          "internalType": "address",
          "name": "account",
          "type": "address"
        }
      ],
      "name": "OwnableUnauthorizedAccount",
      "type": "error"
    },
    {
      "inputs": [],
      "name": "ReentrancyGuardReentrantCall",
      "type": "error"
    },
    {
      "inputs": [
        {
          "internalType": "address",
          "name": "token",
          "type": "address"
        }
      ],
      "name": "SafeERC20FailedOperation",
      "type": "error"
    },
    {
      "inputs": [],
      "name": "ZeroAmountInjection",
      "type": "error"
    },
    {
      "anonymous": false,
      "inputs": [
        {
          "indexed": true,
          "internalType": "address",
          "name": "user",
          "type": "address"
        },
        {
          "indexed": false,
          "internalType": "uint256",
          "name": "pulls",
          "type": "uint256"
        },
        {
          "indexed": false,
          "internalType": "uint256",
          "name": "calls",
          "type": "uint256"
        },
        {
          "indexed": false,
          "internalType": "uint256",
          "name": "ethReturned",
          "type": "uint256"
        }
      ],
      "name": "Executed",
      "type": "event"
    },
    {
      "anonymous": false,
      "inputs": [
        {
          "indexed": true,
          "internalType": "address",
          "name": "previousOwner",
          "type": "address"
        },
        {
          "indexed": true,
          "internalType": "address",
          "name": "newOwner",
          "type": "address"
        }
      ],
      "name": "OwnershipTransferStarted",
      "type": "event"
    },
    {
      "anonymous": false,
      "inputs": [
        {
          "indexed": true,
          "internalType": "address",
          "name": "previousOwner",
          "type": "address"
        },
        {
          "indexed": true,
          "internalType": "address",
          "name": "newOwner",
          "type": "address"
        }
      ],
      "name": "OwnershipTransferred",
      "type": "event"
    },
    {
      "anonymous": false,
      "inputs": [
        {
          "indexed": false,
          "internalType": "address",
          "name": "account",
          "type": "address"
        }
      ],
      "name": "Paused",
      "type": "event"
    },
    {
      "anonymous": false,
      "inputs": [
        {
          "indexed": true,
          "internalType": "address",
          "name": "token",
          "type": "address"
        },
        {
          "indexed": true,
          "internalType": "address",
          "name": "to",
          "type": "address"
        },
        {
          "indexed": false,
          "internalType": "uint256",
          "name": "amount",
          "type": "uint256"
        }
      ],
      "name": "Rescued",
      "type": "event"
    },
    {
      "anonymous": false,
      "inputs": [
        {
          "indexed": true,
          "internalType": "address",
          "name": "to",
          "type": "address"
        },
        {
          "indexed": false,
          "internalType": "uint256",
          "name": "amount",
          "type": "uint256"
        }
      ],
      "name": "RescuedETH",
      "type": "event"
    },
    {
      "anonymous": false,
      "inputs": [
        {
          "indexed": false,
          "internalType": "address",
          "name": "account",
          "type": "address"
        }
      ],
      "name": "Unpaused",
      "type": "event"
    },
    {
      "inputs": [],
      "name": "acceptOwnership",
      "outputs": [],
      "stateMutability": "nonpayable",
      "type": "function"
    },
    {
      "inputs": [
        {
          "components": [
            {
              "internalType": "address",
              "name": "token",
              "type": "address"
            },
            {
              "internalType": "uint256",
              "name": "amount",
              "type": "uint256"
            }
          ],
          "internalType": "struct AequiExecutor.TokenPull[]",
          "name": "pulls",
          "type": "tuple[]"
        },
        {
          "components": [
            {
              "internalType": "address",
              "name": "token",
              "type": "address"
            },
            {
              "internalType": "address",
              "name": "spender",
              "type": "address"
            },
            {
              "internalType": "uint256",
              "name": "amount",
              "type": "uint256"
            },
            {
              "internalType": "bool",
              "name": "revokeAfter",
              "type": "bool"
            }
          ],
          "internalType": "struct AequiExecutor.Approval[]",
          "name": "approvals",
          "type": "tuple[]"
        },
        {
          "components": [
            {
              "internalType": "address",
              "name": "target",
              "type": "address"
            },
            {
              "internalType": "uint256",
              "name": "value",
              "type": "uint256"
            },
            {
              "internalType": "bytes",
              "name": "data",
              "type": "bytes"
            },
            {
              "internalType": "address",
              "name": "injectToken",
              "type": "address"
            },
            {
              "internalType": "uint256",
              "name": "injectOffset",
              "type": "uint256"
            }
          ],
          "internalType": "struct AequiExecutor.Call[]",
          "name": "calls",
          "type": "tuple[]"
        },
        {
          "internalType": "address[]",
          "name": "tokensToFlush",
          "type": "address[]"
        }
      ],
      "name": "execute",
      "outputs": [
        {
          "internalType": "bytes[]",
          "name": "results",
          "type": "bytes[]"
        }
      ],
      "stateMutability": "payable",
      "type": "function"
    },
    {
      "inputs": [],
      "name": "owner",
      "outputs": [
        {
          "internalType": "address",
          "name": "",
          "type": "address"
        }
      ],
      "stateMutability": "view",
      "type": "function"
    },
    {
      "inputs": [],
      "name": "pause",
      "outputs": [],
      "stateMutability": "nonpayable",
      "type": "function"
    },
    {
      "inputs": [],
      "name": "paused",
      "outputs": [
        {
          "internalType": "bool",
          "name": "",
          "type": "bool"
        }
      ],
      "stateMutability": "view",
      "type": "function"
    },
    {
      "inputs": [],
      "name": "pendingOwner",
      "outputs": [
        {
          "internalType": "address",
          "name": "",
          "type": "address"
        }
      ],
      "stateMutability": "view",
      "type": "function"
    },
    {
      "inputs": [],
      "name": "renounceOwnership",
      "outputs": [],
      "stateMutability": "nonpayable",
      "type": "function"
    },
    {
      "inputs": [
        {
          "internalType": "address payable",
          "name": "to",
          "type": "address"
        },
        {
          "internalType": "uint256",
          "name": "amount",
          "type": "uint256"
        }
      ],
      "name": "rescueETH",
      "outputs": [],
      "stateMutability": "nonpayable",
      "type": "function"
    },
    {
      "inputs": [
        {
          "internalType": "address",
          "name": "token",
          "type": "address"
        },
        {
          "internalType": "address",
          "name": "to",
          "type": "address"
        },
        {
          "internalType": "uint256",
          "name": "amount",
          "type": "uint256"
        }
      ],
      "name": "rescueFunds",
      "outputs": [],
      "stateMutability": "nonpayable",
      "type": "function"
    },
    {
      "inputs": [
        {
          "internalType": "address",
          "name": "newOwner",
          "type": "address"
        }
      ],
      "name": "transferOwnership",
      "outputs": [],
      "stateMutability": "nonpayable",
      "type": "function"
    },
    {
      "inputs": [],
      "name": "unpause",
      "outputs": [],
      "stateMutability": "nonpayable",
      "type": "function"
    },
    {
      "stateMutability": "payable",
      "type": "receive"
    }
  ],
  "bytecode": "0x608060405234801561001057600080fd5b5060405161253538038061253583398181016040528101906100329190610221565b80600073ffffffffffffffffffffffffffffffffffffffff168173ffffffffffffffffffffffffffffffffffffffff16036100a55760006040517f1e4fbdf700000000000000000000000000000000000000000000000000000000815260040161009c919061025d565b60405180910390fd5b6100b4816100c360201b60201c565b50600160028190555050610278565b600160006101000a81549073ffffffffffffffffffffffffffffffffffffffff02191690556100f7816100fa60201b60201c565b50565b60008060009054906101000a900473ffffffffffffffffffffffffffffffffffffffff169050816000806101000a81548173ffffffffffffffffffffffffffffffffffffffff021916908373ffffffffffffffffffffffffffffffffffffffff1602179055508173ffffffffffffffffffffffffffffffffffffffff168173ffffffffffffffffffffffffffffffffffffffff167f8be0079c531659141344cd1fd0a4f28419497f9722a3daafe3b4186f6b6457e060405160405180910390a35050565b600080fd5b600073ffffffffffffffffffffffffffffffffffffffff82169050919050565b60006101ee826101c3565b9050919050565b6101fe816101e3565b811461020957600080fd5b50565b60008151905061021b816101f5565b92915050565b600060208284031215610237576102366101be565b5b60006102458482850161020c565b91505092915050565b610257816101e3565b82525050565b6000602082019050610272600083018461024e565b92915050565b6122ae806102876000396000f3fe6080604052600436106100a05760003560e01c8063715018a611610064578063715018a61461017057806379ba5097146101875780638456cb591461019e5780638da5cb5b146101b5578063e30c3978146101e0578063f2fde38b1461020b576100a7565b806305825102146100ac578063099a04e5146100dc5780633f4ba83a146101055780635c975abb1461011c5780636ccae05414610147576100a7565b366100a757005b600080fd5b6100c660048036038101906100c191906119a9565b610234565b6040516100d39190611be4565b60405180910390f35b3480156100e857600080fd5b5061010360048036038101906100fe9190611c9a565b610314565b005b34801561011157600080fd5b5061011a6103de565b005b34801561012857600080fd5b506101316103f0565b60405161013e9190611cf5565b60405180910390f35b34801561015357600080fd5b5061016e60048036038101906101699190611d4e565b610407565b005b34801561017c57600080fd5b5061018561050a565b005b34801561019357600080fd5b5061019c61051e565b005b3480156101aa57600080fd5b506101b36105ad565b005b3480156101c157600080fd5b506101ca6105bf565b6040516101d79190611db0565b60405180910390f35b3480156101ec57600080fd5b506101f56105e8565b6040516102029190611db0565b60405180910390f35b34801561021757600080fd5b50610232600480360381019061022d9190611dcb565b610612565b005b606061023e6106bf565b610246610703565b600034476102549190611e27565b905060006102628585610744565b905061026e8b8b6109d0565b6102788989610a5e565b6102828787610afc565b925061028e8989610e85565b61029b3386868486610f3b565b3373ffffffffffffffffffffffffffffffffffffffff167f9d3143df72a22f3dea2e5172436c8d5eed763f17bef7a640c55666bdf8a8ad928c8c90508989905085476102e79190611e27565b6040516102f693929190611e6a565b60405180910390a25050610308611185565b98975050505050505050565b61031c61118f565b600073ffffffffffffffffffffffffffffffffffffffff168273ffffffffffffffffffffffffffffffffffffffff1603610382576040517f9c8d2cd200000000000000000000000000000000000000000000000000000000815260040160405180910390fd5b61038c8282611216565b8173ffffffffffffffffffffffffffffffffffffffff167f63b8c8e180bc85c19daef23e2bb787fb49672d3a9ecde24409c18ccb1accb5d1826040516103d29190611ea1565b60405180910390a25050565b6103e661118f565b6103ee6112e0565b565b6000600160149054906101000a900460ff16905090565b61040f61118f565b600073ffffffffffffffffffffffffffffffffffffffff168273ffffffffffffffffffffffffffffffffffffffff1603610475576040517f9c8d2cd200000000000000000000000000000000000000000000000000000000815260040160405180910390fd5b6104a082828573ffffffffffffffffffffffffffffffffffffffff166113439092919063ffffffff16565b8173ffffffffffffffffffffffffffffffffffffffff168373ffffffffffffffffffffffffffffffffffffffff167f3af790fafda720819b2fc6e15090606e81154e0ac9a92d38ecad006d99d20ecc836040516104fd9190611ea1565b60405180910390a3505050565b61051261118f565b61051c60006113c2565b565b60006105286113f3565b90508073ffffffffffffffffffffffffffffffffffffffff166105496105e8565b73ffffffffffffffffffffffffffffffffffffffff16146105a157806040517f118cdaa70000000000000000000000000000000000000000000000000000000081526004016105989190611db0565b60405180910390fd5b6105aa816113c2565b50565b6105b561118f565b6105bd6113fb565b565b60008060009054906101000a900473ffffffffffffffffffffffffffffffffffffffff16905090565b6000600160009054906101000a900473ffffffffffffffffffffffffffffffffffffffff16905090565b61061a61118f565b80600160006101000a81548173ffffffffffffffffffffffffffffffffffffffff021916908373ffffffffffffffffffffffffffffffffffffffff1602179055508073ffffffffffffffffffffffffffffffffffffffff1661067a6105bf565b73ffffffffffffffffffffffffffffffffffffffff167f38d16b8cac22d99fc7c124b9cd0de2d3fa1faef420bfe791d8c362d765e2270060405160405180910390a350565b60028054036106fa576040517f3ee5aeb500000000000000000000000000000000000000000000000000000000815260040160405180910390fd5b60028081905550565b61070b6103f0565b15610742576040517fd93c066500000000000000000000000000000000000000000000000000000000815260040160405180910390fd5b565b60608282905067ffffffffffffffff81111561076357610762611ebc565b5b6040519080825280602002602001820160405280156107915781602001602082028036833780820191505090505b50905060005b838390508110156109c957600073ffffffffffffffffffffffffffffffffffffffff168484838181106107cd576107cc611eeb565b5b90506020020160208101906107e29190611dcb565b73ffffffffffffffffffffffffffffffffffffffff16146109bc5760005b818110156108fa5784848381811061081b5761081a611eeb565b5b90506020020160208101906108309190611dcb565b73ffffffffffffffffffffffffffffffffffffffff1685858381811061085957610858611eeb565b5b905060200201602081019061086e9190611dcb565b73ffffffffffffffffffffffffffffffffffffffff16036108ed5784848381811061089c5761089b611eeb565b5b90506020020160208101906108b19190611dcb565b6040517f97ee5bcc0000000000000000000000000000000000000000000000000000000081526004016108e49190611db0565b60405180910390fd5b8080600101915050610800565b5083838281811061090e5761090d611eeb565b5b90506020020160208101906109239190611dcb565b73ffffffffffffffffffffffffffffffffffffffff166370a08231306040518263ffffffff1660e01b815260040161095b9190611db0565b602060405180830381865afa158015610978573d6000803e3d6000fd5b505050506040513d601f19601f8201168201806040525081019061099c9190611f2f565b8282815181106109af576109ae611eeb565b5b6020026020010181815250505b8080600101915050610797565b5092915050565b60005b82829050811015610a5957368383838181106109f2576109f1611eeb565b5b9050604002019050600081602001351115610a4b57610a4a33308360200135846000016020810190610a249190611dcb565b73ffffffffffffffffffffffffffffffffffffffff1661145d909392919063ffffffff16565b5b5080806001019150506109d3565b505050565b60005b82829050811015610af75736838383818110610a8057610a7f611eeb565b5b9050608002019050600081604001351115610ae957610ae8816020016020810190610aab9190611dcb565b8260400135836000016020810190610ac39190611dcb565b73ffffffffffffffffffffffffffffffffffffffff166114df9092919063ffffffff16565b5b508080600101915050610a61565b505050565b60608282905067ffffffffffffffff811115610b1b57610b1a611ebc565b5b604051908082528060200260200182016040528015610b4e57816020015b6060815260200190600190039081610b395790505b50905060005b83839050811015610e7e5736848483818110610b7357610b72611eeb565b5b9050602002810190610b859190611f6b565b90506000818060400190610b999190611f93565b8080601f016020809104026020016040519081016040528093929190818152602001838380828437600081840152601f19601f820116905080830192505050505050509050600073ffffffffffffffffffffffffffffffffffffffff16826060016020810190610c099190611dcb565b73ffffffffffffffffffffffffffffffffffffffff1614610d5f576000826060016020810190610c399190611dcb565b73ffffffffffffffffffffffffffffffffffffffff166370a08231306040518263ffffffff1660e01b8152600401610c719190611db0565b602060405180830381865afa158015610c8e573d6000803e3d6000fd5b505050506040513d601f19601f82011682018060405250810190610cb29190611f2f565b905060008103610cee576040517f8f348c7b00000000000000000000000000000000000000000000000000000000815260040160405180910390fd5b815160208460800135610d019190611ff6565b1115610d4b57826080013582516040517fce1957cf000000000000000000000000000000000000000000000000000000008152600401610d4292919061202a565b60405180910390fd5b600083608001359050818160208501015250505b600080836000016020810190610d759190611dcb565b73ffffffffffffffffffffffffffffffffffffffff16846020013584604051610d9e919061208f565b60006040518083038185875af1925050503d8060008114610ddb576040519150601f19603f3d011682016040523d82523d6000602084013e610de0565b606091505b509150915081610e4e57600081511115610dfd5780518082602001fd5b84846000016020810190610e119190611dcb565b6040517fbe44d5fa000000000000000000000000000000000000000000000000000000008152600401610e459291906120dd565b60405180910390fd5b80868681518110610e6257610e61611eeb565b5b6020026020010181905250505050508080600101915050610b54565b5092915050565b60005b82829050811015610f365736838383818110610ea757610ea6611eeb565b5b9050608002019050806060016020810190610ec29190612145565b8015610ed2575060008160400135115b15610f2857610f27816020016020810190610eed9190611dcb565b6000836000016020810190610f029190611dcb565b73ffffffffffffffffffffffffffffffffffffffff166114df9092919063ffffffff16565b5b508080600101915050610e88565b505050565b600073ffffffffffffffffffffffffffffffffffffffff168573ffffffffffffffffffffffffffffffffffffffff1603610fa1576040517f9c8d2cd200000000000000000000000000000000000000000000000000000000815260040160405180910390fd5b60005b8484905081101561115957600073ffffffffffffffffffffffffffffffffffffffff16858583818110610fda57610fd9611eeb565b5b9050602002016020810190610fef9190611dcb565b73ffffffffffffffffffffffffffffffffffffffff16031561114c5760008585838181106110205761101f611eeb565b5b90506020020160208101906110359190611dcb565b73ffffffffffffffffffffffffffffffffffffffff166370a08231306040518263ffffffff1660e01b815260040161106d9190611db0565b602060405180830381865afa15801561108a573d6000803e3d6000fd5b505050506040513d601f19601f820116820180604052508101906110ae9190611f2f565b90508382815181106110c3576110c2611eeb565b5b602002602001015181111561114a57611149878584815181106110e9576110e8611eeb565b5b6020026020010151836110fc9190611e27565b88888681811061110f5761110e611eeb565b5b90506020020160208101906111249190611dcb565b73ffffffffffffffffffffffffffffffffffffffff166113439092919063ffffffff16565b5b505b8080600101915050610fa4565b5060004790508181111561117d5761117c8683836111779190611e27565b611216565b5b505050505050565b6001600281905550565b6111976113f3565b73ffffffffffffffffffffffffffffffffffffffff166111b56105bf565b73ffffffffffffffffffffffffffffffffffffffff1614611214576111d86113f3565b6040517f118cdaa700000000000000000000000000000000000000000000000000000000815260040161120b9190611db0565b60405180910390fd5b565b8047101561125d5747816040517fcf47918100000000000000000000000000000000000000000000000000000000815260040161125492919061202a565b60405180910390fd5b6000808373ffffffffffffffffffffffffffffffffffffffff168360405161128490612195565b60006040518083038185875af1925050503d80600081146112c1576040519150601f19603f3d011682016040523d82523d6000602084013e6112c6565b606091505b5091509150816112da576112d9816115ee565b5b50505050565b6112e8611632565b6000600160146101000a81548160ff0219169083151502179055507f5db9ee0a495bf2e6ff9c91a7834c1ba4fdd244a5e8aa4e537bd38aeae4b073aa61132c6113f3565b6040516113399190611db0565b60405180910390a1565b6113bd838473ffffffffffffffffffffffffffffffffffffffff1663a9059cbb85856040516024016113769291906121aa565b604051602081830303815290604052915060e01b6020820180517bffffffffffffffffffffffffffffffffffffffffffffffffffffffff8381831617835250505050611672565b505050565b600160006101000a81549073ffffffffffffffffffffffffffffffffffffffff02191690556113f081611714565b50565b600033905090565b611403610703565b60018060146101000a81548160ff0219169083151502179055507f62e78cea01bee320cd4e420270b5ea74000d11b0c9f74754ebdbfc544b05a2586114466113f3565b6040516114539190611db0565b60405180910390a1565b6114d9848573ffffffffffffffffffffffffffffffffffffffff166323b872dd868686604051602401611492939291906121d3565b604051602081830303815290604052915060e01b6020820180517bffffffffffffffffffffffffffffffffffffffffffffffffffffffff8381831617835250505050611672565b50505050565b60008373ffffffffffffffffffffffffffffffffffffffff1663095ea7b384846040516024016115109291906121aa565b604051602081830303815290604052915060e01b6020820180517bffffffffffffffffffffffffffffffffffffffffffffffffffffffff8381831617835250505050905061155e84826117d8565b6115e8576115dd848573ffffffffffffffffffffffffffffffffffffffff1663095ea7b386600060405160240161159692919061224f565b604051602081830303815290604052915060e01b6020820180517bffffffffffffffffffffffffffffffffffffffffffffffffffffffff8381831617835250505050611672565b6115e78482611672565b5b50505050565b60008151111561160057805160208201fd5b6040517fd6bda27500000000000000000000000000000000000000000000000000000000815260040160405180910390fd5b61163a6103f0565b611670576040517f8dfc202b00000000000000000000000000000000000000000000000000000000815260040160405180910390fd5b565b600080602060008451602086016000885af180611695576040513d6000823e3d81fd5b3d9250600051915050600082146116b05760018114156116cc565b60008473ffffffffffffffffffffffffffffffffffffffff163b145b1561170e57836040517f5274afe70000000000000000000000000000000000000000000000000000000081526004016117059190611db0565b60405180910390fd5b50505050565b60008060009054906101000a900473ffffffffffffffffffffffffffffffffffffffff169050816000806101000a81548173ffffffffffffffffffffffffffffffffffffffff021916908373ffffffffffffffffffffffffffffffffffffffff1602179055508173ffffffffffffffffffffffffffffffffffffffff168173ffffffffffffffffffffffffffffffffffffffff167f8be0079c531659141344cd1fd0a4f28419497f9722a3daafe3b4186f6b6457e060405160405180910390a35050565b6000806000806020600086516020880160008a5af192503d9150600051905082801561182d575060008214611810576001811461182c565b60008673ffffffffffffffffffffffffffffffffffffffff163b115b5b935050505092915050565b600080fd5b600080fd5b600080fd5b600080fd5b600080fd5b60008083601f84011261186757611866611842565b5b8235905067ffffffffffffffff81111561188457611883611847565b5b6020830191508360408202830111156118a05761189f61184c565b5b9250929050565b60008083601f8401126118bd576118bc611842565b5b8235905067ffffffffffffffff8111156118da576118d9611847565b5b6020830191508360808202830111156118f6576118f561184c565b5b9250929050565b60008083601f84011261191357611912611842565b5b8235905067ffffffffffffffff8111156119305761192f611847565b5b60208301915083602082028301111561194c5761194b61184c565b5b9250929050565b60008083601f84011261196957611968611842565b5b8235905067ffffffffffffffff81111561198657611985611847565b5b6020830191508360208202830111156119a2576119a161184c565b5b9250929050565b6000806000806000806000806080898b0312156119c9576119c8611838565b5b600089013567ffffffffffffffff8111156119e7576119e661183d565b5b6119f38b828c01611851565b9850985050602089013567ffffffffffffffff811115611a1657611a1561183d565b5b611a228b828c016118a7565b9650965050604089013567ffffffffffffffff811115611a4557611a4461183d565b5b611a518b828c016118fd565b9450945050606089013567ffffffffffffffff811115611a7457611a7361183d565b5b611a808b828c01611953565b92509250509295985092959890939650565b600081519050919050565b600082825260208201905092915050565b6000819050602082019050919050565b600081519050919050565b600082825260208201905092915050565b60005b83811015611af8578082015181840152602081019050611add565b60008484015250505050565b6000601f19601f8301169050919050565b6000611b2082611abe565b611b2a8185611ac9565b9350611b3a818560208601611ada565b611b4381611b04565b840191505092915050565b6000611b5a8383611b15565b905092915050565b6000602082019050919050565b6000611b7a82611a92565b611b848185611a9d565b935083602082028501611b9685611aae565b8060005b85811015611bd25784840389528151611bb38582611b4e565b9450611bbe83611b62565b925060208a01995050600181019050611b9a565b50829750879550505050505092915050565b60006020820190508181036000830152611bfe8184611b6f565b905092915050565b600073ffffffffffffffffffffffffffffffffffffffff82169050919050565b6000611c3182611c06565b9050919050565b611c4181611c26565b8114611c4c57600080fd5b50565b600081359050611c5e81611c38565b92915050565b6000819050919050565b611c7781611c64565b8114611c8257600080fd5b50565b600081359050611c9481611c6e565b92915050565b60008060408385031215611cb157611cb0611838565b5b6000611cbf85828601611c4f565b9250506020611cd085828601611c85565b9150509250929050565b60008115159050919050565b611cef81611cda565b82525050565b6000602082019050611d0a6000830184611ce6565b92915050565b6000611d1b82611c06565b9050919050565b611d2b81611d10565b8114611d3657600080fd5b50565b600081359050611d4881611d22565b92915050565b600080600060608486031215611d6757611d66611838565b5b6000611d7586828701611d39565b9350506020611d8686828701611d39565b9250506040611d9786828701611c85565b9150509250925092565b611daa81611d10565b82525050565b6000602082019050611dc56000830184611da1565b92915050565b600060208284031215611de157611de0611838565b5b6000611def84828501611d39565b91505092915050565b7f4e487b7100000000000000000000000000000000000000000000000000000000600052601160045260246000fd5b6000611e3282611c64565b9150611e3d83611c64565b9250828203905081811115611e5557611e54611df8565b5b92915050565b611e6481611c64565b82525050565b6000606082019050611e7f6000830186611e5b565b611e8c6020830185611e5b565b611e996040830184611e5b565b949350505050565b6000602082019050611eb66000830184611e5b565b92915050565b7f4e487b7100000000000000000000000000000000000000000000000000000000600052604160045260246000fd5b7f4e487b7100000000000000000000000000000000000000000000000000000000600052603260045260246000fd5b600081519050611f2981611c6e565b92915050565b600060208284031215611f4557611f44611838565b5b6000611f5384828501611f1a565b91505092915050565b600080fd5b600080fd5b600080fd5b60008235600160a003833603038112611f8757611f86611f5c565b5b80830191505092915050565b60008083356001602003843603038112611fb057611faf611f5c565b5b80840192508235915067ffffffffffffffff821115611fd257611fd1611f61565b5b602083019250600182023603831315611fee57611fed611f66565b5b509250929050565b600061200182611c64565b915061200c83611c64565b925082820190508082111561202457612023611df8565b5b92915050565b600060408201905061203f6000830185611e5b565b61204c6020830184611e5b565b9392505050565b600081905092915050565b600061206982611abe565b6120738185612053565b9350612083818560208601611ada565b80840191505092915050565b600061209b828461205e565b915081905092915050565b600082825260208201905092915050565b50565b60006120c76000836120a6565b91506120d2826120b7565b600082019050919050565b60006060820190506120f26000830185611e5b565b6120ff6020830184611da1565b8181036040830152612110816120ba565b90509392505050565b61212281611cda565b811461212d57600080fd5b50565b60008135905061213f81612119565b92915050565b60006020828403121561215b5761215a611838565b5b600061216984828501612130565b91505092915050565b600061217f600083612053565b915061218a826120b7565b600082019050919050565b60006121a082612172565b9150819050919050565b60006040820190506121bf6000830185611da1565b6121cc6020830184611e5b565b9392505050565b60006060820190506121e86000830186611da1565b6121f56020830185611da1565b6122026040830184611e5b565b949350505050565b6000819050919050565b6000819050919050565b600061223961223461222f8461220a565b612214565b611c64565b9050919050565b6122498161221e565b82525050565b60006040820190506122646000830185611da1565b6122716020830184612240565b939250505056fea26469706673582212203523926a57b0a9d29c5aadd086769dd7fa11a152ab4ea9a505fe83951de17b6a64736f6c634300081c0033",
  "linkReferences": {},
  "deployedLinkReferences": {}
}