{
  "_format": "hh-sol-artifact-1",
  "contractName": "AequiLens",
  "sourceName": "contracts/AequiLens.sol",
  "abi": [
    {
      "inputs": [
        {
          "internalType": "address[]",
          "name": "tokens",
          "type": "address[]"
        },
        {
          "internalType": "address",
          "name": "owner",
          "type": "address"
        },
        {
          "internalType": "address",
          "name": "spender",
          "type": "address"
        }
      ],
      "name": "batchCheckAllowances",
      "outputs": [
        {
          "internalType": "uint256[]",
          "name": "",
          "type": "uint256[]"
        }
      ],
      "stateMutability": "view",
      "type": "function"
    },
    {
      "inputs": [
        {
          "internalType": "address[]",
          "name": "tokens",
          "type": "address[]"
        },
        {
          "internalType": "address",
          "name": "account",
          "type": "address"
        }
      ],
      "name": "batchCheckTokenBalances",
      "outputs": [
        {
          "internalType": "uint256[]",
          "name": "",
          "type": "uint256[]"
        }
      ],
      "stateMutability": "view",
      "type": "function"
    },
    {
      "inputs": [
        {
          "internalType": "address[]",
          "name": "tokens",
          "type": "address[]"
        }
      ],
      "name": "batchGetTokenMetadata",
      "outputs": [
        {
          "components": [
            {
              "internalType": "address",
              "name": "tokenAddress",
              "type": "address"
            },
            {
              "internalType": "string",
              "name": "name",
              "type": "string"
            },
            {
              "internalType": "string",
              "name": "symbol",
              "type": "string"
            },
            {
              "internalType": "uint8",
              "name": "decimals",
              "type": "uint8"
            },
            {
              "internalType": "uint256",
              "name": "totalSupply",
              "type": "uint256"
            },
            {
              "internalType": "bool",
              "name": "exists",
              "type": "bool"
            }
          ],
          "internalType": "struct AequiLens.TokenMetadata[]",
          "name": "",
          "type": "tuple[]"
        }
      ],
      "stateMutability": "view",
      "type": "function"
    },
    {
      "inputs": [
        {
          "internalType": "address[]",
          "name": "pairs",
          "type": "address[]"
        }
      ],
      "name": "batchGetV2PoolData",
      "outputs": [
        {
          "components": [
            {
              "internalType": "address",
              "name": "pairAddress",
              "type": "address"
            },
            {
              "internalType": "address",
              "name": "token0",
              "type": "address"
            },
            {
              "internalType": "address",
              "name": "token1",
              "type": "address"
            },
            {
              "internalType": "uint112",
              "name": "reserve0",
              "type": "uint112"
            },
            {
              "internalType": "uint112",
              "name": "reserve1",
              "type": "uint112"
            },
            {
              "internalType": "uint32",
              "name": "blockTimestampLast",
              "type": "uint32"
            },
            {
              "internalType": "bool",
              "name": "exists",
              "type": "bool"
            }
          ],
          "internalType": "struct AequiLens.V2PoolData[]",
          "name": "",
          "type": "tuple[]"
        }
      ],
      "stateMutability": "view",
      "type": "function"
    },
    {
      "inputs": [
        {
          "internalType": "address[]",
          "name": "pools",
          "type": "address[]"
        }
      ],
      "name": "batchGetV3PoolData",
      "outputs": [
        {
          "components": [
            {
              "internalType": "address",
              "name": "poolAddress",
              "type": "address"
            },
            {
              "internalType": "address",
              "name": "token0",
              "type": "address"
            },
            {
              "internalType": "address",
              "name": "token1",
              "type": "address"
            },
            {
              "internalType": "uint24",
              "name": "fee",
              "type": "uint24"
            },
            {
              "internalType": "uint160",
              "name": "sqrtPriceX96",
              "type": "uint160"
            },
            {
              "internalType": "int24",
              "name": "tick",
              "type": "int24"
            },
            {
              "internalType": "uint128",
              "name": "liquidity",
              "type": "uint128"
            },
            {
              "internalType": "bool",
              "name": "exists",
              "type": "bool"
            }
          ],
          "internalType": "struct AequiLens.V3PoolData[]",
          "name": "",
          "type": "tuple[]"
        }
      ],
      "stateMutability": "view",
      "type": "function"
    },
    {
      "inputs": [
        {
          "internalType": "address",
          "name": "pool",
          "type": "address"
        }
      ],
      "name": "getV3PoolDataSingle",
      "outputs": [
        {
          "components": [
            {
              "internalType": "address",
              "name": "poolAddress",
              "type": "address"
            },
            {
              "internalType": "address",
              "name": "token0",
              "type": "address"
            },
            {
              "internalType": "address",
              "name": "token1",
              "type": "address"
            },
            {
              "internalType": "uint24",
              "name": "fee",
              "type": "uint24"
            },
            {
              "internalType": "uint160",
              "name": "sqrtPriceX96",
              "type": "uint160"
            },
            {
              "internalType": "int24",
              "name": "tick",
              "type": "int24"
            },
            {
              "internalType": "uint128",
              "name": "liquidity",
              "type": "uint128"
            },
            {
              "internalType": "bool",
              "name": "exists",
              "type": "bool"
            }
          ],
          "internalType": "struct AequiLens.V3PoolData",
          "name": "",
          "type": "tuple"
        }
      ],
      "stateMutability": "view",
      "type": "function"
    }
  ],
  "bytecode": "0x6080604052348015600f57600080fd5b5061247f8061001f6000396000f3fe608060405234801561001057600080fd5b50600436106100625760003560e01c8063569a542f146100675780637e5108e0146100975780638c99c4d1146100c7578063b35afa7f146100f7578063edf50b3014610127578063ff8f622a14610157575b600080fd5b610081600480360381019061007c9190611482565b610187565b60405161008e91906116b0565b60405180910390f35b6100b160048036038101906100ac9190611482565b610520565b6040516100be91906118e9565b60405180910390f35b6100e160048036038101906100dc9190611937565b61090a565b6040516100ee9190611a5a565b60405180910390f35b610111600480360381019061010c9190611482565b610ad9565b60405161011e9190611c42565b60405180910390f35b610141600480360381019061013c9190611c64565b610cf5565b60405161014e9190611d33565b60405180910390f35b610171600480360381019061016c9190611d4f565b61108c565b60405161017e9190611a5a565b60405180910390f35b606060008383905067ffffffffffffffff8111156101a8576101a7611daf565b5b6040519080825280602002602001820160405280156101e157816020015b6101ce611258565b8152602001906001900390816101c65790505b50905060005b8484905081101561051557600085858381811061020757610206611dde565b5b905060200201602081019061021c9190611c64565b905060008173ffffffffffffffffffffffffffffffffffffffff163b0361026e57600083838151811061025257610251611dde565b5b602002602001015160c001901515908115158152505050610508565b8073ffffffffffffffffffffffffffffffffffffffff16630902f1ac6040518163ffffffff1660e01b8152600401606060405180830381865afa9250505080156102d657506040513d601f19601f820116820180604052508101906102d39190611e65565b60015b61030a5760008383815181106102ef576102ee611dde565b5b602002602001015160c0019015159081151581525050610506565b8373ffffffffffffffffffffffffffffffffffffffff16630dfe16816040518163ffffffff1660e01b8152600401602060405180830381865afa92505050801561037257506040513d601f19601f8201168201806040525081019061036f9190611ecd565b60015b6103a657600086868151811061038b5761038a611dde565b5b602002602001015160c0019015159081151581525050610502565b8473ffffffffffffffffffffffffffffffffffffffff1663d21220a76040518163ffffffff1660e01b8152600401602060405180830381865afa92505050801561040e57506040513d601f19601f8201168201806040525081019061040b9190611ecd565b60015b61044257600087878151811061042757610426611dde565b5b602002602001015160c0019015159081151581525050610500565b6040518060e001604052808773ffffffffffffffffffffffffffffffffffffffff1681526020018373ffffffffffffffffffffffffffffffffffffffff1681526020018273ffffffffffffffffffffffffffffffffffffffff168152602001866dffffffffffffffffffffffffffff168152602001856dffffffffffffffffffffffffffff1681526020018463ffffffff168152602001600115158152508888815181106104f3576104f2611dde565b5b6020026020010181905250505b505b5050505b505b80806001019150506101e7565b508091505092915050565b606060008383905067ffffffffffffffff81111561054157610540611daf565b5b60405190808252806020026020018201604052801561057a57816020015b6105676112ff565b81526020019060019003908161055f5790505b50905060005b848490508110156108ff5760008585838181106105a05761059f611dde565b5b90506020020160208101906105b59190611c64565b905060008173ffffffffffffffffffffffffffffffffffffffff163b036106075760008383815181106105eb576105ea611dde565b5b602002602001015160a0019015159081151581525050506108f2565b8073ffffffffffffffffffffffffffffffffffffffff166306fdde036040518163ffffffff1660e01b8152600401600060405180830381865afa92505050801561067457506040513d6000823e3d601f19601f820116820180604052508101906106719190611fec565b60015b6106a857600083838151811061068d5761068c611dde565b5b602002602001015160a00190151590811515815250506108f0565b8173ffffffffffffffffffffffffffffffffffffffff166395d89b416040518163ffffffff1660e01b8152600401600060405180830381865afa92505050801561071557506040513d6000823e3d601f19601f820116820180604052508101906107129190611fec565b60015b61074957600084848151811061072e5761072d611dde565b5b602002602001015160a00190151590811515815250506108ee565b8273ffffffffffffffffffffffffffffffffffffffff1663313ce5676040518163ffffffff1660e01b8152600401602060405180830381865afa9250505080156107b157506040513d601f19601f820116820180604052508101906107ae9190612061565b60015b6107e55760008585815181106107ca576107c9611dde565b5b602002602001015160a00190151590811515815250506108ec565b8373ffffffffffffffffffffffffffffffffffffffff166318160ddd6040518163ffffffff1660e01b8152600401602060405180830381865afa92505050801561084d57506040513d601f19601f8201168201806040525081019061084a91906120ba565b60015b61088157600086868151811061086657610865611dde565b5b602002602001015160a00190151590811515815250506108ea565b6040518060c001604052808673ffffffffffffffffffffffffffffffffffffffff1681526020018581526020018481526020018360ff168152602001828152602001600115158152508787815181106108dd576108dc611dde565b5b6020026020010181905250505b505b505b505b505b8080600101915050610580565b508091505092915050565b606060008585905067ffffffffffffffff81111561092b5761092a611daf565b5b6040519080825280602002602001820160405280156109595781602001602082028036833780820191505090505b50905060005b86869050811015610acc57600087878381811061097f5761097e611dde565b5b90506020020160208101906109949190611c64565b73ffffffffffffffffffffffffffffffffffffffff163b036109d65760008282815181106109c5576109c4611dde565b5b602002602001018181525050610abf565b8686828181106109e9576109e8611dde565b5b90506020020160208101906109fe9190611c64565b73ffffffffffffffffffffffffffffffffffffffff1663dd62ed3e86866040518363ffffffff1660e01b8152600401610a389291906120f6565b602060405180830381865afa925050508015610a7257506040513d601f19601f82011682018060405250810190610a6f91906120ba565b60015b610a9c576000828281518110610a8b57610a8a611dde565b5b602002602001018181525050610abe565b80838381518110610ab057610aaf611dde565b5b602002602001018181525050505b5b808060010191505061095f565b5080915050949350505050565b606060008383905067ffffffffffffffff811115610afa57610af9611daf565b5b604051908082528060200260200182016040528015610b3357816020015b610b20611350565b815260200190600190039081610b185790505b50905060005b84849050811015610cea576000858583818110610b5957610b58611dde565b5b9050602002016020810190610b6e9190611c64565b905080838381518110610b8457610b83611dde565b5b60200260200101516000019073ffffffffffffffffffffffffffffffffffffffff16908173ffffffffffffffffffffffffffffffffffffffff168152505060008173ffffffffffffffffffffffffffffffffffffffff163b03610c12576000838381518110610bf657610bf5611dde565b5b602002602001015160e001901515908115158152505050610cdd565b3073ffffffffffffffffffffffffffffffffffffffff1663edf50b30826040518263ffffffff1660e01b8152600401610c4b919061211f565b61010060405180830381865afa925050508015610c8657506040513d601f19601f82011682018060405250810190610c8391906122e5565b60015b610cba576000838381518110610c9f57610c9e611dde565b5b602002602001015160e0019015159081151581525050610cdb565b80848481518110610cce57610ccd611dde565b5b6020026020010181905250505b505b8080600101915050610b39565b508091505092915050565b610cfd611350565b610d05611350565b82816000019073ffffffffffffffffffffffffffffffffffffffff16908173ffffffffffffffffffffffffffffffffffffffff16815250506000808473ffffffffffffffffffffffffffffffffffffffff16633850c7bd6040518163ffffffff1660e01b815260040160e060405180830381865afa158015610d8b573d6000803e3d6000fd5b505050506040513d601f19601f82011682018060405250810190610daf919061234d565b50505050509150915081836080019073ffffffffffffffffffffffffffffffffffffffff16908173ffffffffffffffffffffffffffffffffffffffff1681525050808360a0019060020b908160020b815250508473ffffffffffffffffffffffffffffffffffffffff16631a6865026040518163ffffffff1660e01b8152600401602060405180830381865afa158015610e4d573d6000803e3d6000fd5b505050506040513d601f19601f82011682018060405250810190610e7191906123ef565b8360c001906fffffffffffffffffffffffffffffffff1690816fffffffffffffffffffffffffffffffff16815250508473ffffffffffffffffffffffffffffffffffffffff16630dfe16816040518163ffffffff1660e01b8152600401602060405180830381865afa158015610eeb573d6000803e3d6000fd5b505050506040513d601f19601f82011682018060405250810190610f0f9190611ecd565b836020019073ffffffffffffffffffffffffffffffffffffffff16908173ffffffffffffffffffffffffffffffffffffffff16815250508473ffffffffffffffffffffffffffffffffffffffff1663d21220a76040518163ffffffff1660e01b8152600401602060405180830381865afa158015610f91573d6000803e3d6000fd5b505050506040513d601f19601f82011682018060405250810190610fb59190611ecd565b836040019073ffffffffffffffffffffffffffffffffffffffff16908173ffffffffffffffffffffffffffffffffffffffff16815250508473ffffffffffffffffffffffffffffffffffffffff1663ddca3f436040518163ffffffff1660e01b8152600401602060405180830381865afa158015611037573d6000803e3d6000fd5b505050506040513d601f19601f8201168201806040525081019061105b919061241c565b836060019062ffffff16908162ffffff168152505060018360e0019015159081151581525050829350505050919050565b606060008484905067ffffffffffffffff8111156110ad576110ac611daf565b5b6040519080825280602002602001820160405280156110db5781602001602082028036833780820191505090505b50905060005b8585905081101561124c57600086868381811061110157611100611dde565b5b90506020020160208101906111169190611c64565b73ffffffffffffffffffffffffffffffffffffffff163b0361115857600082828151811061114757611146611dde565b5b60200260200101818152505061123f565b85858281811061116b5761116a611dde565b5b90506020020160208101906111809190611c64565b73ffffffffffffffffffffffffffffffffffffffff166370a08231856040518263ffffffff1660e01b81526004016111b8919061211f565b602060405180830381865afa9250505080156111f257506040513d601f19601f820116820180604052508101906111ef91906120ba565b60015b61121c57600082828151811061120b5761120a611dde565b5b60200260200101818152505061123e565b808383815181106112305761122f611dde565b5b602002602001018181525050505b5b80806001019150506110e1565b50809150509392505050565b6040518060e00160405280600073ffffffffffffffffffffffffffffffffffffffff168152602001600073ffffffffffffffffffffffffffffffffffffffff168152602001600073ffffffffffffffffffffffffffffffffffffffff16815260200160006dffffffffffffffffffffffffffff16815260200160006dffffffffffffffffffffffffffff168152602001600063ffffffff1681526020016000151581525090565b6040518060c00160405280600073ffffffffffffffffffffffffffffffffffffffff1681526020016060815260200160608152602001600060ff168152602001600081526020016000151581525090565b604051806101000160405280600073ffffffffffffffffffffffffffffffffffffffff168152602001600073ffffffffffffffffffffffffffffffffffffffff168152602001600073ffffffffffffffffffffffffffffffffffffffff168152602001600062ffffff168152602001600073ffffffffffffffffffffffffffffffffffffffff168152602001600060020b815260200160006fffffffffffffffffffffffffffffffff1681526020016000151581525090565b6000604051905090565b600080fd5b600080fd5b600080fd5b600080fd5b600080fd5b60008083601f8401126114425761144161141d565b5b8235905067ffffffffffffffff81111561145f5761145e611422565b5b60208301915083602082028301111561147b5761147a611427565b5b9250929050565b6000806020838503121561149957611498611413565b5b600083013567ffffffffffffffff8111156114b7576114b6611418565b5b6114c38582860161142c565b92509250509250929050565b600081519050919050565b600082825260208201905092915050565b6000819050602082019050919050565b600073ffffffffffffffffffffffffffffffffffffffff82169050919050565b6000611526826114fb565b9050919050565b6115368161151b565b82525050565b60006dffffffffffffffffffffffffffff82169050919050565b61155f8161153c565b82525050565b600063ffffffff82169050919050565b61157e81611565565b82525050565b60008115159050919050565b61159981611584565b82525050565b60e0820160008201516115b5600085018261152d565b5060208201516115c8602085018261152d565b5060408201516115db604085018261152d565b5060608201516115ee6060850182611556565b5060808201516116016080850182611556565b5060a082015161161460a0850182611575565b5060c082015161162760c0850182611590565b50505050565b6000611639838361159f565b60e08301905092915050565b6000602082019050919050565b600061165d826114cf565b61166781856114da565b9350611672836114eb565b8060005b838110156116a357815161168a888261162d565b975061169583611645565b925050600181019050611676565b5085935050505092915050565b600060208201905081810360008301526116ca8184611652565b905092915050565b600081519050919050565b600082825260208201905092915050565b6000819050602082019050919050565b600081519050919050565b600082825260208201905092915050565b60005b8381101561173857808201518184015260208101905061171d565b60008484015250505050565b6000601f19601f8301169050919050565b6000611760826116fe565b61176a8185611709565b935061177a81856020860161171a565b61178381611744565b840191505092915050565b600060ff82169050919050565b6117a48161178e565b82525050565b6000819050919050565b6117bd816117aa565b82525050565b600060c0830160008301516117db600086018261152d565b50602083015184820360208601526117f38282611755565b9150506040830151848203604086015261180d8282611755565b9150506060830151611822606086018261179b565b50608083015161183560808601826117b4565b5060a083015161184860a0860182611590565b508091505092915050565b600061185f83836117c3565b905092915050565b6000602082019050919050565b600061187f826116d2565b61188981856116dd565b93508360208202850161189b856116ee565b8060005b858110156118d757848403895281516118b88582611853565b94506118c383611867565b925060208a0199505060018101905061189f565b50829750879550505050505092915050565b600060208201905081810360008301526119038184611874565b905092915050565b6119148161151b565b811461191f57600080fd5b50565b6000813590506119318161190b565b92915050565b6000806000806060858703121561195157611950611413565b5b600085013567ffffffffffffffff81111561196f5761196e611418565b5b61197b8782880161142c565b9450945050602061198e87828801611922565b925050604061199f87828801611922565b91505092959194509250565b600081519050919050565b600082825260208201905092915050565b6000819050602082019050919050565b60006119e383836117b4565b60208301905092915050565b6000602082019050919050565b6000611a07826119ab565b611a1181856119b6565b9350611a1c836119c7565b8060005b83811015611a4d578151611a3488826119d7565b9750611a3f836119ef565b925050600181019050611a20565b5085935050505092915050565b60006020820190508181036000830152611a7481846119fc565b905092915050565b600081519050919050565b600082825260208201905092915050565b6000819050602082019050919050565b600062ffffff82169050919050565b611ac081611aa8565b82525050565b611acf816114fb565b82525050565b60008160020b9050919050565b611aeb81611ad5565b82525050565b60006fffffffffffffffffffffffffffffffff82169050919050565b611b1681611af1565b82525050565b61010082016000820151611b33600085018261152d565b506020820151611b46602085018261152d565b506040820151611b59604085018261152d565b506060820151611b6c6060850182611ab7565b506080820151611b7f6080850182611ac6565b5060a0820151611b9260a0850182611ae2565b5060c0820151611ba560c0850182611b0d565b5060e0820151611bb860e0850182611590565b50505050565b6000611bca8383611b1c565b6101008301905092915050565b6000602082019050919050565b6000611bef82611a7c565b611bf98185611a87565b9350611c0483611a98565b8060005b83811015611c35578151611c1c8882611bbe565b9750611c2783611bd7565b925050600181019050611c08565b5085935050505092915050565b60006020820190508181036000830152611c5c8184611be4565b905092915050565b600060208284031215611c7a57611c79611413565b5b6000611c8884828501611922565b91505092915050565b61010082016000820151611ca8600085018261152d565b506020820151611cbb602085018261152d565b506040820151611cce604085018261152d565b506060820151611ce16060850182611ab7565b506080820151611cf46080850182611ac6565b5060a0820151611d0760a0850182611ae2565b5060c0820151611d1a60c0850182611b0d565b5060e0820151611d2d60e0850182611590565b50505050565b600061010082019050611d496000830184611c91565b92915050565b600080600060408486031215611d6857611d67611413565b5b600084013567ffffffffffffffff811115611d8657611d85611418565b5b611d928682870161142c565b93509350506020611da586828701611922565b9150509250925092565b7f4e487b7100000000000000000000000000000000000000000000000000000000600052604160045260246000fd5b7f4e487b7100000000000000000000000000000000000000000000000000000000600052603260045260246000fd5b611e168161153c565b8114611e2157600080fd5b50565b600081519050611e3381611e0d565b92915050565b611e4281611565565b8114611e4d57600080fd5b50565b600081519050611e5f81611e39565b92915050565b600080600060608486031215611e7e57611e7d611413565b5b6000611e8c86828701611e24565b9350506020611e9d86828701611e24565b9250506040611eae86828701611e50565b9150509250925092565b600081519050611ec78161190b565b92915050565b600060208284031215611ee357611ee2611413565b5b6000611ef184828501611eb8565b91505092915050565b600080fd5b611f0882611744565b810181811067ffffffffffffffff82111715611f2757611f26611daf565b5b80604052505050565b6000611f3a611409565b9050611f468282611eff565b919050565b600067ffffffffffffffff821115611f6657611f65611daf565b5b611f6f82611744565b9050602081019050919050565b6000611f8f611f8a84611f4b565b611f30565b905082815260208101848484011115611fab57611faa611efa565b5b611fb684828561171a565b509392505050565b600082601f830112611fd357611fd261141d565b5b8151611fe3848260208601611f7c565b91505092915050565b60006020828403121561200257612001611413565b5b600082015167ffffffffffffffff8111156120205761201f611418565b5b61202c84828501611fbe565b91505092915050565b61203e8161178e565b811461204957600080fd5b50565b60008151905061205b81612035565b92915050565b60006020828403121561207757612076611413565b5b60006120858482850161204c565b91505092915050565b612097816117aa565b81146120a257600080fd5b50565b6000815190506120b48161208e565b92915050565b6000602082840312156120d0576120cf611413565b5b60006120de848285016120a5565b91505092915050565b6120f08161151b565b82525050565b600060408201905061210b60008301856120e7565b61211860208301846120e7565b9392505050565b600060208201905061213460008301846120e7565b92915050565b600080fd5b61214881611aa8565b811461215357600080fd5b50565b6000815190506121658161213f565b92915050565b612174816114fb565b811461217f57600080fd5b50565b6000815190506121918161216b565b92915050565b6121a081611ad5565b81146121ab57600080fd5b50565b6000815190506121bd81612197565b92915050565b6121cc81611af1565b81146121d757600080fd5b50565b6000815190506121e9816121c3565b92915050565b6121f881611584565b811461220357600080fd5b50565b600081519050612215816121ef565b92915050565b600061010082840312156122325761223161213a565b5b61223d610100611f30565b9050600061224d84828501611eb8565b600083015250602061226184828501611eb8565b602083015250604061227584828501611eb8565b604083015250606061228984828501612156565b606083015250608061229d84828501612182565b60808301525060a06122b1848285016121ae565b60a08301525060c06122c5848285016121da565b60c08301525060e06122d984828501612206565b60e08301525092915050565b600061010082840312156122fc576122fb611413565b5b600061230a8482850161221b565b91505092915050565b600061ffff82169050919050565b61232a81612313565b811461233557600080fd5b50565b60008151905061234781612321565b92915050565b600080600080600080600060e0888a03121561236c5761236b611413565b5b600061237a8a828b01612182565b975050602061238b8a828b016121ae565b965050604061239c8a828b01612338565b95505060606123ad8a828b01612338565b94505060806123be8a828b01612338565b93505060a06123cf8a828b01611e50565b92505060c06123e08a828b01612206565b91505092959891949750929550565b60006020828403121561240557612404611413565b5b6000612413848285016121da565b91505092915050565b60006020828403121561243257612431611413565b5b600061244084828501612156565b9150509291505056fea264697066735822122053ff574c6789580ae15f4df81262592cc9c88b0f47a3796fe11488bfc46d36eb64736f6c634300081c0033",
  "linkReferences": {},
  "deployedLinkReferences": {}
}